S01B00006A676166663030315F6C6162355F70617274332E737265636E
S11300004EC000005CC000005AC0000058C0000090
S113001056C0000054C0000052C0000050C0000090
S11300204EC000004CC000004AC0000048C00000A0
S113003046C0000044C0000042C0000040C00000B0
S11300403EC000003CC000003AC0000038C00000C0
S113005036C0000034C0000032C0000030C00000D0
S11300602EC000002CC000002AC0000028C00000E0
S113007026C0000024C0000022C0000020C00000F0
S11300801EC000001CC000001AC000006B006F00FE
S113009075007B00810087008D0093009900112476
S11300A01FBECFEFD0E4DEBFCDBF21E0A0E0B1E0C2
S11300B001C01D92A130B207E1F75AD06CC0A0CFA5
S11300C0E09100018E2F90E089309105C0F5FC018C
S11300D0EA5BFF4F57C081E08093000133C0009B6F
S11300E031C082E0809300012FC000992DC083E0CD
S11300F0809300012CC0009B2AC084E080930001FF
S113010029C0009927C085E08093000126C0009B88
S113011024C086E08093000123C0009921C087E0B9
S11301208093000120C0009B1EC088E080930001E2
S11301301DC000991BC081E08093000103C0109290
S11301400001089515B808958AE285B908958AE2F0
S113015085B9089585E185B9089585E185B908953E
S11301608FE385B908958FE385B9089515B8089587
S113017011B88FEF82B984B915B815B8109200017F
S11301809FDFFECFEE0FFF1F0024001C0BBE079065
S10D0190F691E02D0994F894FFCFD6
S9030000FC
