:100000004DC000005BC0000059C0000057C0000098
:1000100055C0000053C0000051C000004FC0000098
:100020004DC000004BC0000049C0000047C00000A8
:1000300045C0000043C0000041C000003FC00000B8
:100040003DC000003BC0000039C0000037C00000C8
:1000500035C0000033C0000031C000002FC00000D8
:100060002DC000002BC0000029C0000027C00000E8
:1000700025C0000023C0000021C000001FC00000F8
:100080001DC000001BC0000019C000006B00710003
:10009000750097009B009F00AF00BF0011241FBE9A
:1000A000CFEFD0E4DEBFCDBF21E0A0E0B1E001C0E2
:1000B0001D92A130B207E1F773D085C0A1CFE091C6
:1000C00000018E2F90E08830910508F05CC0FC01A3
:1000D000EA5BFF4F6FC081E08093000187E088B941
:1000E000089582E0809300010895009902C0019B69
:1000F00056C0009909C0019B07C084E080930001AD
:1001000088B1811147C00895009B09C0019907C0BB
:1001100083E08093000188B18930C0F10895009B8D
:100120003EC0019B3CC087E08093000137C085E062
:1001300080930001089586E0809300010895009B5C
:1001400006C0019B04C087E08093000127C000998E
:1001500004C082E080930001089580B10895009B5F
:1001600006C0019B04C087E08093000117C001997D
:1001700004C082E080930001089580B1089582E078
:1001800080930001089510920001089588B18F5F57
:1001900088B9089588B1815088B9089518B808952C
:1001A00011B88FEF82B987B918B818B8109200014A
:1001B00086DFFECFEE0FFF1F0024001C0BBE079052
:0A01C000F691E02D0994F894FFCFAA
:00000001FF
